{
  "_format": "hh-sol-artifact-1",
  "contractName": "DateGame",
  "sourceName": "contracts/DateGame.sol",
  "abi": [
    {
      "inputs": [],
      "stateMutability": "nonpayable",
      "type": "constructor"
    },
    {
      "anonymous": false,
      "inputs": [
        {
          "indexed": true,
          "internalType": "address",
          "name": "user",
          "type": "address"
        }
      ],
      "name": "AgeStored",
      "type": "event"
    },
    {
      "inputs": [],
      "name": "comparisonResult",
      "outputs": [
        {
          "internalType": "ctUint8",
          "name": "",
          "type": "uint256"
        }
      ],
      "stateMutability": "view",
      "type": "function"
    },
    {
      "inputs": [
        {
          "components": [
            {
              "internalType": "ctUint64",
              "name": "ciphertext",
              "type": "uint256"
            },
            {
              "internalType": "bytes",
              "name": "signature",
              "type": "bytes"
            }
          ],
          "internalType": "struct itUint64",
          "name": "value",
          "type": "tuple"
        }
      ],
      "name": "greaterThan",
      "outputs": [],
      "stateMutability": "nonpayable",
      "type": "function"
    },
    {
      "inputs": [],
      "name": "isAgeSet",
      "outputs": [
        {
          "internalType": "bool",
          "name": "",
          "type": "bool"
        }
      ],
      "stateMutability": "view",
      "type": "function"
    },
    {
      "inputs": [
        {
          "components": [
            {
              "internalType": "ctUint64",
              "name": "ciphertext",
              "type": "uint256"
            },
            {
              "internalType": "bytes",
              "name": "signature",
              "type": "bytes"
            }
          ],
          "internalType": "struct itUint64",
          "name": "value",
          "type": "tuple"
        }
      ],
      "name": "lessThan",
      "outputs": [],
      "stateMutability": "nonpayable",
      "type": "function"
    },
    {
      "inputs": [
        {
          "components": [
            {
              "internalType": "ctUint64",
              "name": "ciphertext",
              "type": "uint256"
            },
            {
              "internalType": "bytes",
              "name": "signature",
              "type": "bytes"
            }
          ],
          "internalType": "struct itUint64",
          "name": "age",
          "type": "tuple"
        }
      ],
      "name": "setAge",
      "outputs": [],
      "stateMutability": "nonpayable",
      "type": "function"
    }
  ],
  "bytecode": "0x608060405234801561001057600080fd5b506002805460ff19169055600580546001600160a01b031916331790556108298061003c6000396000f3fe608060405234801561001057600080fd5b50600436106100575760003560e01c80633d5939421461005c57806340e722461461007157806350bdd16c1461008c5780635d5be2f51461009d578063e45e4118146100b0575b600080fd5b61006f61006a366004610611565b6100c3565b005b60025460ff1660405190151581526020015b60405180910390f35b600454604051908152602001610083565b61006f6100ab366004610611565b61013b565b61006f6100be366004610611565b610209565b60006100d66100d1836106bc565b610286565b6005549091506100f09082906001600160a01b0316610303565b8051600090815560209091015160019081556002805460ff1916909117905560405133917f5bc391583e3d427f2f99ab4ab3a8d5606b8e4d2beac3cf405b704f00436b6ce591a25050565b60025460ff166101925760405162461bcd60e51b815260206004820152601a60248201527f4e6f2061676520686173206265656e2073746f7265642079657400000000000060448201526064015b60405180910390fd5b6000805461019f90610337565b905060006101af6100d1846106bc565b905060006101bd8383610379565b905060006101cb600161040f565b905060006101d9600061040f565b905060006101e8848385610443565b90506101f481336104e0565b80516003556020015160045550505050505050565b60025460ff1661025b5760405162461bcd60e51b815260206004820152601a60248201527f4e6f2061676520686173206265656e2073746f726564207965740000000000006044820152606401610189565b6000805461026890610337565b905060006102786100d1846106bc565b905060006101bd8383610509565b80516020820151604051630e4f36e160e41b815260009260649263e4f36e10926102ba92600160fa1b929091600401610777565b6020604051808303816000875af11580156102d9573d6000803e3d6000fd5b505050506040513d601f19601f820116820180604052508101906102fd91906107da565b92915050565b60408051808201909152600080825260208201526103208361051e565b815261032c838361052e565b602082015292915050565b6000606463d2c135e560045b60f81b846040518363ffffffff1660e01b81526004016102ba9291906001600160f81b0319929092168252602082015260400190565b6000606463dd14869361038e60048085610594565b6040516001600160e01b031960e084901b1681526001600160e81b0319909116600482015260248101869052604481018590526064015b6020604051808303816000875af11580156103e4573d6000803e3d6000fd5b505050506040513d601f19601f8201168201806040525081019061040891906107da565b9392505050565b6040516306cdb05b60e51b8152600160f81b600482015260ff8216602482015260009060649063d9b60b60906044016102ba565b600060646320cc408d61045860018085610594565b6040516001600160e01b031960e084901b1681526001600160e81b031990911660048201526024810187905260448101869052606481018590526084016020604051808303816000875af11580156104b4573d6000803e3d6000fd5b505050506040513d601f19601f820116820180604052508101906104d891906107da565b949350505050565b60408051808201909152600080825260208201526104fd836105f1565b815261032c8383610601565b60006064636d82e45e61038e60048085610594565b6000606463c50c9c026004610343565b60006064633c6f0e6860045b60f81b8585604051602001610567919060609190911b6bffffffffffffffffffffffff1916815260140190565b6040516020818303038152906040526040518463ffffffff1660e01b81526004016103c593929190610777565b60008160028111156105a8576105a8610761565b60ff1660088460048111156105bf576105bf610761565b61ffff16901b61ffff1660108660048111156105dd576105dd610761565b62ffffff16901b171760e81b949350505050565b6000606463c50c9c026001610343565b60006064633c6f0e68600161053a565b60006020828403121561062357600080fd5b813567ffffffffffffffff81111561063a57600080fd5b82016040818503121561040857600080fd5b634e487b7160e01b600052604160045260246000fd5b6040805190810167ffffffffffffffff811182821017156106855761068561064c565b60405290565b604051601f8201601f1916810167ffffffffffffffff811182821017156106b4576106b461064c565b604052919050565b6000604082360312156106ce57600080fd5b6106d6610662565b8235815260208084013567ffffffffffffffff808211156106f657600080fd5b9085019036601f83011261070957600080fd5b81358181111561071b5761071b61064c565b61072d601f8201601f1916850161068b565b9150808252368482850101111561074357600080fd5b80848401858401376000908201840152918301919091525092915050565b634e487b7160e01b600052602160045260246000fd5b60ff60f81b8416815260006020848184015260606040840152835180606085015260005b818110156107b75785810183015185820160800152820161079b565b506000608082860101526080601f19601f83011685010192505050949350505050565b6000602082840312156107ec57600080fd5b505191905056fea26469706673582212205ca1f9f6cbde0c295efdcc768c43d2b18d3460cc150a66af14da168cd62e92f764736f6c63430008130033",
  "linkReferences": {},
  "deployedLinkReferences": {}
}